{
  "_format": "hh-sol-artifact-1",
  "contractName": "StakingYield",
  "sourceName": "contracts/StakingYield.sol",
  "abi": [
    {
      "inputs": [
        {
          "internalType": "address",
          "name": "_stakingToken",
          "type": "address"
        }
      ],
      "stateMutability": "nonpayable",
      "type": "constructor"
    },
    {
      "anonymous": false,
      "inputs": [
        {
          "indexed": true,
          "internalType": "address",
          "name": "previousOwner",
          "type": "address"
        },
        {
          "indexed": true,
          "internalType": "address",
          "name": "newOwner",
          "type": "address"
        }
      ],
      "name": "OwnershipTransferred",
      "type": "event"
    },
    {
      "anonymous": false,
      "inputs": [
        {
          "indexed": false,
          "internalType": "address",
          "name": "account",
          "type": "address"
        }
      ],
      "name": "Paused",
      "type": "event"
    },
    {
      "anonymous": false,
      "inputs": [
        {
          "indexed": false,
          "internalType": "address",
          "name": "ownerAddress",
          "type": "address"
        },
        {
          "indexed": false,
          "internalType": "uint256",
          "name": "amount",
          "type": "uint256"
        }
      ],
      "name": "Recovered",
      "type": "event"
    },
    {
      "anonymous": false,
      "inputs": [
        {
          "indexed": false,
          "internalType": "uint256",
          "name": "reward",
          "type": "uint256"
        }
      ],
      "name": "RewardAdded",
      "type": "event"
    },
    {
      "anonymous": false,
      "inputs": [
        {
          "indexed": true,
          "internalType": "address",
          "name": "user",
          "type": "address"
        },
        {
          "indexed": false,
          "internalType": "uint256",
          "name": "reward",
          "type": "uint256"
        }
      ],
      "name": "RewardPaid",
      "type": "event"
    },
    {
      "anonymous": false,
      "inputs": [
        {
          "indexed": false,
          "internalType": "uint256",
          "name": "Amount",
          "type": "uint256"
        }
      ],
      "name": "RewardTokenDeposited",
      "type": "event"
    },
    {
      "anonymous": false,
      "inputs": [
        {
          "indexed": false,
          "internalType": "uint256",
          "name": "newDuration",
          "type": "uint256"
        }
      ],
      "name": "RewardsDurationUpdated",
      "type": "event"
    },
    {
      "anonymous": false,
      "inputs": [
        {
          "indexed": true,
          "internalType": "address",
          "name": "user",
          "type": "address"
        },
        {
          "indexed": false,
          "internalType": "uint256",
          "name": "amount",
          "type": "uint256"
        }
      ],
      "name": "Staked",
      "type": "event"
    },
    {
      "anonymous": false,
      "inputs": [
        {
          "indexed": false,
          "internalType": "address",
          "name": "account",
          "type": "address"
        }
      ],
      "name": "Unpaused",
      "type": "event"
    },
    {
      "anonymous": false,
      "inputs": [
        {
          "indexed": true,
          "internalType": "address",
          "name": "user",
          "type": "address"
        },
        {
          "indexed": false,
          "internalType": "uint256",
          "name": "recieved",
          "type": "uint256"
        },
        {
          "indexed": false,
          "internalType": "uint256",
          "name": "Burned",
          "type": "uint256"
        }
      ],
      "name": "Withdrawn",
      "type": "event"
    },
    {
      "inputs": [],
      "name": "Token",
      "outputs": [
        {
          "internalType": "contract IERC20",
          "name": "",
          "type": "address"
        }
      ],
      "stateMutability": "view",
      "type": "function"
    },
    {
      "inputs": [
        {
          "internalType": "address",
          "name": "",
          "type": "address"
        }
      ],
      "name": "balanceOf",
      "outputs": [
        {
          "internalType": "uint256",
          "name": "",
          "type": "uint256"
        }
      ],
      "stateMutability": "view",
      "type": "function"
    },
    {
      "inputs": [],
      "name": "burnableToken",
      "outputs": [
        {
          "internalType": "contract ERC20Burnable",
          "name": "",
          "type": "address"
        }
      ],
      "stateMutability": "view",
      "type": "function"
    },
    {
      "inputs": [
        {
          "internalType": "uint256",
          "name": "_amount",
          "type": "uint256"
        }
      ],
      "name": "depositRewardToken",
      "outputs": [],
      "stateMutability": "nonpayable",
      "type": "function"
    },
    {
      "inputs": [],
      "name": "duration",
      "outputs": [
        {
          "internalType": "uint256",
          "name": "",
          "type": "uint256"
        }
      ],
      "stateMutability": "view",
      "type": "function"
    },
    {
      "inputs": [
        {
          "internalType": "address",
          "name": "_account",
          "type": "address"
        }
      ],
      "name": "earned",
      "outputs": [
        {
          "internalType": "uint256",
          "name": "",
          "type": "uint256"
        }
      ],
      "stateMutability": "view",
      "type": "function"
    },
    {
      "inputs": [],
      "name": "finishAt",
      "outputs": [
        {
          "internalType": "uint256",
          "name": "",
          "type": "uint256"
        }
      ],
      "stateMutability": "view",
      "type": "function"
    },
    {
      "inputs": [],
      "name": "getReward",
      "outputs": [],
      "stateMutability": "nonpayable",
      "type": "function"
    },
    {
      "inputs": [],
      "name": "lastTimeRewardApplicable",
      "outputs": [
        {
          "internalType": "uint256",
          "name": "",
          "type": "uint256"
        }
      ],
      "stateMutability": "view",
      "type": "function"
    },
    {
      "inputs": [
        {
          "internalType": "uint256",
          "name": "_amount",
          "type": "uint256"
        }
      ],
      "name": "notifyRewardAmount",
      "outputs": [],
      "stateMutability": "nonpayable",
      "type": "function"
    },
    {
      "inputs": [],
      "name": "owner",
      "outputs": [
        {
          "internalType": "address",
          "name": "",
          "type": "address"
        }
      ],
      "stateMutability": "view",
      "type": "function"
    },
    {
      "inputs": [],
      "name": "pause",
      "outputs": [],
      "stateMutability": "nonpayable",
      "type": "function"
    },
    {
      "inputs": [],
      "name": "paused",
      "outputs": [
        {
          "internalType": "bool",
          "name": "",
          "type": "bool"
        }
      ],
      "stateMutability": "view",
      "type": "function"
    },
    {
      "inputs": [
        {
          "internalType": "address",
          "name": "ownerAddress",
          "type": "address"
        },
        {
          "internalType": "uint256",
          "name": "tokenAmount",
          "type": "uint256"
        }
      ],
      "name": "recoverERC20",
      "outputs": [],
      "stateMutability": "nonpayable",
      "type": "function"
    },
    {
      "inputs": [],
      "name": "renounceOwnership",
      "outputs": [],
      "stateMutability": "nonpayable",
      "type": "function"
    },
    {
      "inputs": [],
      "name": "rewardPerToken",
      "outputs": [
        {
          "internalType": "uint256",
          "name": "",
          "type": "uint256"
        }
      ],
      "stateMutability": "view",
      "type": "function"
    },
    {
      "inputs": [],
      "name": "rewardPerTokenStored",
      "outputs": [
        {
          "internalType": "uint256",
          "name": "",
          "type": "uint256"
        }
      ],
      "stateMutability": "view",
      "type": "function"
    },
    {
      "inputs": [],
      "name": "rewardRate",
      "outputs": [
        {
          "internalType": "uint256",
          "name": "",
          "type": "uint256"
        }
      ],
      "stateMutability": "view",
      "type": "function"
    },
    {
      "inputs": [],
      "name": "rewardTokens",
      "outputs": [
        {
          "internalType": "uint256",
          "name": "",
          "type": "uint256"
        }
      ],
      "stateMutability": "view",
      "type": "function"
    },
    {
      "inputs": [
        {
          "internalType": "address",
          "name": "",
          "type": "address"
        }
      ],
      "name": "rewards",
      "outputs": [
        {
          "internalType": "uint256",
          "name": "",
          "type": "uint256"
        }
      ],
      "stateMutability": "view",
      "type": "function"
    },
    {
      "inputs": [
        {
          "internalType": "uint256",
          "name": "_duration",
          "type": "uint256"
        }
      ],
      "name": "setRewardsDuration",
      "outputs": [],
      "stateMutability": "nonpayable",
      "type": "function"
    },
    {
      "inputs": [
        {
          "internalType": "address",
          "name": "_userAddress",
          "type": "address"
        },
        {
          "internalType": "uint256",
          "name": "_amount",
          "type": "uint256"
        }
      ],
      "name": "stake",
      "outputs": [],
      "stateMutability": "nonpayable",
      "type": "function"
    },
    {
      "inputs": [
        {
          "internalType": "address",
          "name": "",
          "type": "address"
        }
      ],
      "name": "stakeTimestamps",
      "outputs": [
        {
          "internalType": "uint256",
          "name": "",
          "type": "uint256"
        }
      ],
      "stateMutability": "view",
      "type": "function"
    },
    {
      "inputs": [],
      "name": "totalSupply",
      "outputs": [
        {
          "internalType": "uint256",
          "name": "",
          "type": "uint256"
        }
      ],
      "stateMutability": "view",
      "type": "function"
    },
    {
      "inputs": [
        {
          "internalType": "address",
          "name": "newOwner",
          "type": "address"
        }
      ],
      "name": "transferOwnership",
      "outputs": [],
      "stateMutability": "nonpayable",
      "type": "function"
    },
    {
      "inputs": [],
      "name": "unpause",
      "outputs": [],
      "stateMutability": "nonpayable",
      "type": "function"
    },
    {
      "inputs": [],
      "name": "updatedAt",
      "outputs": [
        {
          "internalType": "uint256",
          "name": "",
          "type": "uint256"
        }
      ],
      "stateMutability": "view",
      "type": "function"
    },
    {
      "inputs": [
        {
          "internalType": "address",
          "name": "",
          "type": "address"
        }
      ],
      "name": "userRewardPerTokenPaid",
      "outputs": [
        {
          "internalType": "uint256",
          "name": "",
          "type": "uint256"
        }
      ],
      "stateMutability": "view",
      "type": "function"
    },
    {
      "inputs": [],
      "name": "withdraw",
      "outputs": [],
      "stateMutability": "nonpayable",
      "type": "function"
    }
  ],
  "bytecode": "0x60a06040523480156200001157600080fd5b506040516200268a3803806200268a83398181016040528101906200003791906200022b565b620000576200004b620000f560201b60201c565b620000fd60201b60201c565b600180819055506000600260006101000a81548160ff0219169083151502179055508073ffffffffffffffffffffffffffffffffffffffff1660808173ffffffffffffffffffffffffffffffffffffffff168152505080600260016101000a81548173ffffffffffffffffffffffffffffffffffffffff021916908373ffffffffffffffffffffffffffffffffffffffff160217905550506200025d565b600033905090565b60008060009054906101000a900473ffffffffffffffffffffffffffffffffffffffff169050816000806101000a81548173ffffffffffffffffffffffffffffffffffffffff021916908373ffffffffffffffffffffffffffffffffffffffff1602179055508173ffffffffffffffffffffffffffffffffffffffff168173ffffffffffffffffffffffffffffffffffffffff167f8be0079c531659141344cd1fd0a4f28419497f9722a3daafe3b4186f6b6457e060405160405180910390a35050565b600080fd5b600073ffffffffffffffffffffffffffffffffffffffff82169050919050565b6000620001f382620001c6565b9050919050565b6200020581620001e6565b81146200021157600080fd5b50565b6000815190506200022581620001fa565b92915050565b600060208284031215620002445762000243620001c1565b5b6000620002548482850162000214565b91505092915050565b6080516123ee6200029c60003960008181610b9f01528181610ea101528181611037015281816112d9015281816114a0015261159b01526123ee6000f3fe608060405234801561001057600080fd5b50600436106101ce5760003560e01c806380faa57d11610104578063adc9772e116100a2578063cc1a378f11610071578063cc1a378f146104af578063cd3daf9d146104cb578063df136d65146104e9578063f2fde38b14610507576101ce565b8063adc9772e1461043b578063c089bd7414610457578063c241267614610473578063c2b18aa014610491576101ce565b80638b876347116100de5780638b8763471461039f5780638da5cb5b146103cf5780639841c605146103ed57806399f853a51461040b576101ce565b806380faa57d1461035b5780638456cb59146103795780638980f11f14610383576101ce565b80633f4ba83a1161017157806370a082311161014b57806370a08231146102e5578063715018a6146103155780637519ab501461031f5780637b0a47ee1461033d576101ce565b80633f4ba83a1461029f5780635c975abb146102a957806367d3b488146102c7576101ce565b806318160ddd116101ad57806318160ddd146102515780633c6b16ab1461026f5780633ccfd60b1461028b5780633d18b91214610295576101ce565b80628cc262146101d35780630700037d146102035780630fb5a6b414610233575b600080fd5b6101ed60048036038101906101e89190611abe565b610523565b6040516101fa9190611b04565b60405180910390f35b61021d60048036038101906102189190611abe565b610625565b60405161022a9190611b04565b60405180910390f35b61023b61063d565b6040516102489190611b04565b60405180910390f35b610259610643565b6040516102669190611b04565b60405180910390f35b61028960048036038101906102849190611b4b565b610649565b005b61029361089f565b005b61029d610d29565b005b6102a7610f91565b005b6102b1610fa3565b6040516102be9190611b93565b60405180910390f35b6102cf610fba565b6040516102dc9190611b04565b60405180910390f35b6102ff60048036038101906102fa9190611abe565b610fc0565b60405161030c9190611b04565b60405180910390f35b61031d610fd8565b005b610327610fec565b6040516103349190611b04565b60405180910390f35b610345610ff2565b6040516103529190611b04565b60405180910390f35b610363610ff8565b6040516103709190611b04565b60405180910390f35b61038161100b565b005b61039d60048036038101906103989190611bae565b61101d565b005b6103b960048036038101906103b49190611abe565b611119565b6040516103c69190611b04565b60405180910390f35b6103d7611131565b6040516103e49190611bfd565b60405180910390f35b6103f561115a565b6040516104029190611c77565b60405180910390f35b61042560048036038101906104209190611abe565b611180565b6040516104329190611b04565b60405180910390f35b61045560048036038101906104509190611bae565b611198565b005b610471600480360381019061046c9190611b4b565b611486565b005b61047b611599565b6040516104889190611cb3565b60405180910390f35b6104996115bd565b6040516104a69190611b04565b60405180910390f35b6104c960048036038101906104c49190611b4b565b6115c3565b005b6104d3611650565b6040516104e09190611b04565b60405180910390f35b6104f16116bb565b6040516104fe9190611b04565b60405180910390f35b610521600480360381019061051c9190611abe565b6116c1565b005b6000600960008373ffffffffffffffffffffffffffffffffffffffff1673ffffffffffffffffffffffffffffffffffffffff16815260200190815260200160002054670de0b6b3a7640000600860008573ffffffffffffffffffffffffffffffffffffffff1673ffffffffffffffffffffffffffffffffffffffff168152602001908152602001600020546105b6611650565b6105c09190611cfd565b600c60008673ffffffffffffffffffffffffffffffffffffffff1673ffffffffffffffffffffffffffffffffffffffff1681526020019081526020016000205461060a9190611d31565b6106149190611dba565b61061e9190611deb565b9050919050565b60096020528060005260406000206000915090505481565b60035481565b600a5481565b610651611745565b6106596117c3565b610661611813565b600061066b611650565b600781905550610679610ff8565b600581905550600073ffffffffffffffffffffffffffffffffffffffff168173ffffffffffffffffffffffffffffffffffffffff1614610746576106bc81610523565b600960008373ffffffffffffffffffffffffffffffffffffffff1673ffffffffffffffffffffffffffffffffffffffff16815260200190815260200160002081905550600754600860008373ffffffffffffffffffffffffffffffffffffffff1673ffffffffffffffffffffffffffffffffffffffff168152602001908152602001600020819055505b6004544210610768576003548261075d9190611dba565b6006819055506107a8565b60006006544260045461077b9190611cfd565b6107859190611d31565b905060035481846107969190611deb565b6107a09190611dba565b600681905550505b6000600654116107ed576040517f08c379a00000000000000000000000000000000000000000000000000000000081526004016107e490611e9e565b60405180910390fd5b600b546003546006546108009190611d31565b1115610841576040517f08c379a000000000000000000000000000000000000000000000000000000000815260040161083890611f0a565b60405180910390fd5b6003544261084f9190611deb565b600481905550426005819055507fde88a922e0d3b88b24e9623efeb464919c6bf9f66857a65e2bfcf2ce87a9433d8260405161088b9190611b04565b60405180910390a15061089c61185d565b50565b336108a8611650565b6007819055506108b6610ff8565b600581905550600073ffffffffffffffffffffffffffffffffffffffff168173ffffffffffffffffffffffffffffffffffffffff1614610983576108f981610523565b600960008373ffffffffffffffffffffffffffffffffffffffff1673ffffffffffffffffffffffffffffffffffffffff16815260200190815260200160002081905550600754600860008373ffffffffffffffffffffffffffffffffffffffff1673ffffffffffffffffffffffffffffffffffffffff168152602001908152602001600020819055505b61098b611813565b6109936117c3565b600080600c60003373ffffffffffffffffffffffffffffffffffffffff1673ffffffffffffffffffffffffffffffffffffffff16815260200190815260200160002054905060004290506000600d60003373ffffffffffffffffffffffffffffffffffffffff1673ffffffffffffffffffffffffffffffffffffffff168152602001908152602001600020549050600083905062ed4e0082610a359190611deb565b831015610a77576040517f08c379a0000000000000000000000000000000000000000000000000000000008152600401610a6e90611f9c565b60405180910390fd5b6301e1338082610a879190611deb565b831015610ab05761271061138885610a9f9190611d31565b610aa99190611dba565b9450610b20565b6303c2670082610ac09190611deb565b831015610ae9576127106107d085610ad89190611d31565b610ae29190611dba565b9450610b1f565b6305a39a8082610af99190611deb565b831015610b1e576127106103e885610b119190611d31565b610b1b9190611dba565b94505b5b5b8481610b2c9190611cfd565b905083600a6000828254610b409190611cfd565b9250508190555083600c60003373ffffffffffffffffffffffffffffffffffffffff1673ffffffffffffffffffffffffffffffffffffffff1681526020019081526020016000206000828254610b969190611cfd565b925050819055507f000000000000000000000000000000000000000000000000000000000000000073ffffffffffffffffffffffffffffffffffffffff1663a9059cbb33836040518363ffffffff1660e01b8152600401610bf8929190611fbc565b6020604051808303816000875af1158015610c17573d6000803e3d6000fd5b505050506040513d601f19601f82011682018060405250810190610c3b9190612011565b50600260019054906101000a900473ffffffffffffffffffffffffffffffffffffffff1673ffffffffffffffffffffffffffffffffffffffff166342966c68866040518263ffffffff1660e01b8152600401610c979190611b04565b600060405180830381600087803b158015610cb157600080fd5b505af1158015610cc5573d6000803e3d6000fd5b505050503373ffffffffffffffffffffffffffffffffffffffff167f92ccf450a286a957af52509bc1c9939d1a6a481783e142e41e2499f0bb66ebc68287604051610d1192919061203e565b60405180910390a25050505050610d2661185d565b50565b33610d32611650565b600781905550610d40610ff8565b600581905550600073ffffffffffffffffffffffffffffffffffffffff168173ffffffffffffffffffffffffffffffffffffffff1614610e0d57610d8381610523565b600960008373ffffffffffffffffffffffffffffffffffffffff1673ffffffffffffffffffffffffffffffffffffffff16815260200190815260200160002081905550600754600860008373ffffffffffffffffffffffffffffffffffffffff1673ffffffffffffffffffffffffffffffffffffffff168152602001908152602001600020819055505b6000600960003373ffffffffffffffffffffffffffffffffffffffff1673ffffffffffffffffffffffffffffffffffffffff1681526020019081526020016000205490506000811115610f8d576000600960003373ffffffffffffffffffffffffffffffffffffffff1673ffffffffffffffffffffffffffffffffffffffff168152602001908152602001600020819055507f000000000000000000000000000000000000000000000000000000000000000073ffffffffffffffffffffffffffffffffffffffff1663a9059cbb33836040518363ffffffff1660e01b8152600401610efa929190611fbc565b6020604051808303816000875af1158015610f19573d6000803e3d6000fd5b505050506040513d601f19601f82011682018060405250810190610f3d9190612011565b503373ffffffffffffffffffffffffffffffffffffffff167fe2403640ba68fed3a2f88b7557551d1993f84b99bb10ff833f0cf8db0c5e048682604051610f849190611b04565b60405180910390a25b5050565b610f99611745565b610fa1611866565b565b6000600260009054906101000a900460ff16905090565b60045481565b600c6020528060005260406000206000915090505481565b610fe0611745565b610fea60006118c9565b565b60055481565b60065481565b60006110066004544261198d565b905090565b611013611745565b61101b6119a7565b565b611025611745565b61102d6117c3565b611035611813565b7f000000000000000000000000000000000000000000000000000000000000000073ffffffffffffffffffffffffffffffffffffffff1663a9059cbb83836040518363ffffffff1660e01b8152600401611090929190611fbc565b6020604051808303816000875af11580156110af573d6000803e3d6000fd5b505050506040513d601f19601f820116820180604052508101906110d39190612011565b507f8c1256b8896378cd5044f80c202f9772b9d77dc85c8a6eb51967210b09bfaa288282604051611105929190611fbc565b60405180910390a161111561185d565b5050565b60086020528060005260406000206000915090505481565b60008060009054906101000a900473ffffffffffffffffffffffffffffffffffffffff16905090565b600260019054906101000a900473ffffffffffffffffffffffffffffffffffffffff1681565b600d6020528060005260406000206000915090505481565b816111a1611650565b6007819055506111af610ff8565b600581905550600073ffffffffffffffffffffffffffffffffffffffff168173ffffffffffffffffffffffffffffffffffffffff161461127c576111f281610523565b600960008373ffffffffffffffffffffffffffffffffffffffff1673ffffffffffffffffffffffffffffffffffffffff16815260200190815260200160002081905550600754600860008373ffffffffffffffffffffffffffffffffffffffff1673ffffffffffffffffffffffffffffffffffffffff168152602001908152602001600020819055505b611284611813565b61128c6117c3565b611294611745565b600082116112d7576040517f08c379a00000000000000000000000000000000000000000000000000000000081526004016112ce906120b3565b60405180910390fd5b7f000000000000000000000000000000000000000000000000000000000000000073ffffffffffffffffffffffffffffffffffffffff166323b872dd3330856040518463ffffffff1660e01b8152600401611334939291906120d3565b6020604051808303816000875af1158015611353573d6000803e3d6000fd5b505050506040513d601f19601f820116820180604052508101906113779190612011565b5081600c60008573ffffffffffffffffffffffffffffffffffffffff1673ffffffffffffffffffffffffffffffffffffffff16815260200190815260200160002060008282546113c79190611deb565b9250508190555042600d60008573ffffffffffffffffffffffffffffffffffffffff1673ffffffffffffffffffffffffffffffffffffffff1681526020019081526020016000208190555081600a60008282546114249190611deb565b925050819055508273ffffffffffffffffffffffffffffffffffffffff167f9e71bc8eea02a63969f509818f2dafb9254532904319f9dbda79b67bd34a5f3d836040516114719190611b04565b60405180910390a261148161185d565b505050565b61148e611745565b611496611813565b61149e6117c3565b7f000000000000000000000000000000000000000000000000000000000000000073ffffffffffffffffffffffffffffffffffffffff166323b872dd3330846040518463ffffffff1660e01b81526004016114fb939291906120d3565b6020604051808303816000875af115801561151a573d6000803e3d6000fd5b505050506040513d601f19601f8201168201806040525081019061153e9190612011565b5080600b60008282546115519190611deb565b925050819055507ef47ca585dd6cf83a933a9b8f943cbbfe2132ea2233abecf979e7eaa74c9114816040516115869190611b04565b60405180910390a161159661185d565b50565b7f000000000000000000000000000000000000000000000000000000000000000081565b600b5481565b6115cb611745565b426004541061160f576040517f08c379a000000000000000000000000000000000000000000000000000000000815260040161160690612156565b60405180910390fd5b806003819055507ffb46ca5a5e06d4540d6387b930a7c978bce0db5f449ec6b3f5d07c6e1d44f2d3816040516116459190611b04565b60405180910390a150565b600080600a5414156116665760075490506116b8565b600a54670de0b6b3a764000060055461167d610ff8565b6116879190611cfd565b6006546116949190611d31565b61169e9190611d31565b6116a89190611dba565b6007546116b59190611deb565b90505b90565b60075481565b6116c9611745565b600073ffffffffffffffffffffffffffffffffffffffff168173ffffffffffffffffffffffffffffffffffffffff161415611739576040517f08c379a0000000000000000000000000000000000000000000000000000000008152600401611730906121e8565b60405180910390fd5b611742816118c9565b50565b61174d611a0a565b73ffffffffffffffffffffffffffffffffffffffff1661176b611131565b73ffffffffffffffffffffffffffffffffffffffff16146117c1576040517f08c379a00000000000000000000000000000000000000000000000000000000081526004016117b890612254565b60405180910390fd5b565b60026001541415611809576040517f08c379a0000000000000000000000000000000000000000000000000000000008152600401611800906122c0565b60405180910390fd5b6002600181905550565b61181b610fa3565b1561185b576040517f08c379a00000000000000000000000000000000000000000000000000000000081526004016118529061232c565b60405180910390fd5b565b60018081905550565b61186e611a12565b6000600260006101000a81548160ff0219169083151502179055507f5db9ee0a495bf2e6ff9c91a7834c1ba4fdd244a5e8aa4e537bd38aeae4b073aa6118b2611a0a565b6040516118bf9190611bfd565b60405180910390a1565b60008060009054906101000a900473ffffffffffffffffffffffffffffffffffffffff169050816000806101000a81548173ffffffffffffffffffffffffffffffffffffffff021916908373ffffffffffffffffffffffffffffffffffffffff1602179055508173ffffffffffffffffffffffffffffffffffffffff168173ffffffffffffffffffffffffffffffffffffffff167f8be0079c531659141344cd1fd0a4f28419497f9722a3daafe3b4186f6b6457e060405160405180910390a35050565b60008183111561199d578161199f565b825b905092915050565b6119af611813565b6001600260006101000a81548160ff0219169083151502179055507f62e78cea01bee320cd4e420270b5ea74000d11b0c9f74754ebdbfc544b05a2586119f3611a0a565b604051611a009190611bfd565b60405180910390a1565b600033905090565b611a1a610fa3565b611a59576040517f08c379a0000000000000000000000000000000000000000000000000000000008152600401611a5090612398565b60405180910390fd5b565b600080fd5b600073ffffffffffffffffffffffffffffffffffffffff82169050919050565b6000611a8b82611a60565b9050919050565b611a9b81611a80565b8114611aa657600080fd5b50565b600081359050611ab881611a92565b92915050565b600060208284031215611ad457611ad3611a5b565b5b6000611ae284828501611aa9565b91505092915050565b6000819050919050565b611afe81611aeb565b82525050565b6000602082019050611b196000830184611af5565b92915050565b611b2881611aeb565b8114611b3357600080fd5b50565b600081359050611b4581611b1f565b92915050565b600060208284031215611b6157611b60611a5b565b5b6000611b6f84828501611b36565b91505092915050565b60008115159050919050565b611b8d81611b78565b82525050565b6000602082019050611ba86000830184611b84565b92915050565b60008060408385031215611bc557611bc4611a5b565b5b6000611bd385828601611aa9565b9250506020611be485828601611b36565b9150509250929050565b611bf781611a80565b82525050565b6000602082019050611c126000830184611bee565b92915050565b6000819050919050565b6000611c3d611c38611c3384611a60565b611c18565b611a60565b9050919050565b6000611c4f82611c22565b9050919050565b6000611c6182611c44565b9050919050565b611c7181611c56565b82525050565b6000602082019050611c8c6000830184611c68565b92915050565b6000611c9d82611c44565b9050919050565b611cad81611c92565b82525050565b6000602082019050611cc86000830184611ca4565b92915050565b7f4e487b7100000000000000000000000000000000000000000000000000000000600052601160045260246000fd5b6000611d0882611aeb565b9150611d1383611aeb565b925082821015611d2657611d25611cce565b5b828203905092915050565b6000611d3c82611aeb565b9150611d4783611aeb565b9250817fffffffffffffffffffffffffffffffffffffffffffffffffffffffffffffffff0483118215151615611d8057611d7f611cce565b5b828202905092915050565b7f4e487b7100000000000000000000000000000000000000000000000000000000600052601260045260246000fd5b6000611dc582611aeb565b9150611dd083611aeb565b925082611de057611ddf611d8b565b5b828204905092915050565b6000611df682611aeb565b9150611e0183611aeb565b9250827fffffffffffffffffffffffffffffffffffffffffffffffffffffffffffffffff03821115611e3657611e35611cce565b5b828201905092915050565b600082825260208201905092915050565b7f7265776172642072617465203d20300000000000000000000000000000000000600082015250565b6000611e88600f83611e41565b9150611e9382611e52565b602082019050919050565b60006020820190508181036000830152611eb781611e7b565b9050919050565b7f72657761726420616d6f756e74203e2062616c616e6365000000000000000000600082015250565b6000611ef4601783611e41565b9150611eff82611ebe565b602082019050919050565b60006020820190508181036000830152611f2381611ee7565b9050919050565b7f43616e277420776974686472617720746f6b656e732077697468696e2036206d60008201527f6f6e746873000000000000000000000000000000000000000000000000000000602082015250565b6000611f86602583611e41565b9150611f9182611f2a565b604082019050919050565b60006020820190508181036000830152611fb581611f79565b9050919050565b6000604082019050611fd16000830185611bee565b611fde6020830184611af5565b9392505050565b611fee81611b78565b8114611ff957600080fd5b50565b60008151905061200b81611fe5565b92915050565b60006020828403121561202757612026611a5b565b5b600061203584828501611ffc565b91505092915050565b60006040820190506120536000830185611af5565b6120606020830184611af5565b9392505050565b7f616d6f756e74203d203000000000000000000000000000000000000000000000600082015250565b600061209d600a83611e41565b91506120a882612067565b602082019050919050565b600060208201905081810360008301526120cc81612090565b9050919050565b60006060820190506120e86000830186611bee565b6120f56020830185611bee565b6121026040830184611af5565b949350505050565b7f726577617264206475726174696f6e206e6f742066696e697368656400000000600082015250565b6000612140601c83611e41565b915061214b8261210a565b602082019050919050565b6000602082019050818103600083015261216f81612133565b9050919050565b7f4f776e61626c653a206e6577206f776e657220697320746865207a65726f206160008201527f6464726573730000000000000000000000000000000000000000000000000000602082015250565b60006121d2602683611e41565b91506121dd82612176565b604082019050919050565b60006020820190508181036000830152612201816121c5565b9050919050565b7f4f776e61626c653a2063616c6c6572206973206e6f7420746865206f776e6572600082015250565b600061223e602083611e41565b915061224982612208565b602082019050919050565b6000602082019050818103600083015261226d81612231565b9050919050565b7f5265656e7472616e637947756172643a207265656e7472616e742063616c6c00600082015250565b60006122aa601f83611e41565b91506122b582612274565b602082019050919050565b600060208201905081810360008301526122d98161229d565b9050919050565b7f5061757361626c653a2070617573656400000000000000000000000000000000600082015250565b6000612316601083611e41565b9150612321826122e0565b602082019050919050565b6000602082019050818103600083015261234581612309565b9050919050565b7f5061757361626c653a206e6f7420706175736564000000000000000000000000600082015250565b6000612382601483611e41565b915061238d8261234c565b602082019050919050565b600060208201905081810360008301526123b181612375565b905091905056fea26469706673582212200c600892a39a198a8e4276b6520a305127fc1a0e2376e415f9914565280e022464736f6c634300080b0033",
  "linkReferences": {},
  "deployedLinkReferences": {}
}